{
  "address": "0xC0726d702eAF129888E48708ae6cAF0eeF85A4A6",
  "abi": [
    {
      "inputs": [
        {
          "internalType": "address",
          "name": "_signer",
          "type": "address"
        }
      ],
      "stateMutability": "nonpayable",
      "type": "constructor"
    },
    {
      "anonymous": false,
      "inputs": [
        {
          "indexed": false,
          "internalType": "address",
          "name": "",
          "type": "address"
        }
      ],
      "name": "ChangeOperator",
      "type": "event"
    },
    {
      "anonymous": false,
      "inputs": [
        {
          "indexed": false,
          "internalType": "address",
          "name": "",
          "type": "address"
        }
      ],
      "name": "ChangeSigner",
      "type": "event"
    },
    {
      "anonymous": false,
      "inputs": [
        {
          "indexed": false,
          "internalType": "uint256",
          "name": "",
          "type": "uint256"
        }
      ],
      "name": "SetDailyLimit",
      "type": "event"
    },
    {
      "anonymous": false,
      "inputs": [
        {
          "indexed": false,
          "internalType": "bool",
          "name": "",
          "type": "bool"
        }
      ],
      "name": "SetPaused",
      "type": "event"
    },
    {
      "inputs": [],
      "name": "DailyLimit",
      "outputs": [
        {
          "internalType": "uint256",
          "name": "",
          "type": "uint256"
        }
      ],
      "stateMutability": "view",
      "type": "function"
    },
    {
      "inputs": [
        {
          "internalType": "uint256",
          "name": "",
          "type": "uint256"
        }
      ],
      "name": "DailyMinted",
      "outputs": [
        {
          "internalType": "uint256",
          "name": "",
          "type": "uint256"
        }
      ],
      "stateMutability": "view",
      "type": "function"
    },
    {
      "inputs": [],
      "name": "ERC20",
      "outputs": [
        {
          "internalType": "address",
          "name": "",
          "type": "address"
        }
      ],
      "stateMutability": "view",
      "type": "function"
    },
    {
      "inputs": [
        {
          "internalType": "address",
          "name": "",
          "type": "address"
        }
      ],
      "name": "UserClaimed",
      "outputs": [
        {
          "internalType": "uint256",
          "name": "",
          "type": "uint256"
        }
      ],
      "stateMutability": "view",
      "type": "function"
    },
    {
      "inputs": [
        {
          "internalType": "address",
          "name": "",
          "type": "address"
        }
      ],
      "name": "UserNonce",
      "outputs": [
        {
          "internalType": "uint256",
          "name": "",
          "type": "uint256"
        }
      ],
      "stateMutability": "view",
      "type": "function"
    },
    {
      "inputs": [
        {
          "internalType": "address",
          "name": "_newERC20",
          "type": "address"
        }
      ],
      "name": "changeERC20Address",
      "outputs": [],
      "stateMutability": "nonpayable",
      "type": "function"
    },
    {
      "inputs": [
        {
          "internalType": "address",
          "name": "_newOperator",
          "type": "address"
        }
      ],
      "name": "changeOperator",
      "outputs": [],
      "stateMutability": "nonpayable",
      "type": "function"
    },
    {
      "inputs": [
        {
          "internalType": "address",
          "name": "_newSigner",
          "type": "address"
        }
      ],
      "name": "changeSigner",
      "outputs": [],
      "stateMutability": "nonpayable",
      "type": "function"
    },
    {
      "inputs": [],
      "name": "getAllowedDailyMint",
      "outputs": [
        {
          "internalType": "uint256",
          "name": "",
          "type": "uint256"
        }
      ],
      "stateMutability": "view",
      "type": "function"
    },
    {
      "inputs": [
        {
          "internalType": "uint256",
          "name": "_amount",
          "type": "uint256"
        },
        {
          "internalType": "uint256",
          "name": "_nonce",
          "type": "uint256"
        },
        {
          "internalType": "uint8",
          "name": "_v",
          "type": "uint8"
        },
        {
          "internalType": "bytes32",
          "name": "_r",
          "type": "bytes32"
        },
        {
          "internalType": "bytes32",
          "name": "_s",
          "type": "bytes32"
        }
      ],
      "name": "mint",
      "outputs": [],
      "stateMutability": "nonpayable",
      "type": "function"
    },
    {
      "inputs": [],
      "name": "operator",
      "outputs": [
        {
          "internalType": "address",
          "name": "",
          "type": "address"
        }
      ],
      "stateMutability": "view",
      "type": "function"
    },
    {
      "inputs": [],
      "name": "paused",
      "outputs": [
        {
          "internalType": "bool",
          "name": "",
          "type": "bool"
        }
      ],
      "stateMutability": "view",
      "type": "function"
    },
    {
      "inputs": [
        {
          "internalType": "uint256",
          "name": "_limit",
          "type": "uint256"
        }
      ],
      "name": "setDailyLimit",
      "outputs": [],
      "stateMutability": "nonpayable",
      "type": "function"
    },
    {
      "inputs": [
        {
          "internalType": "bool",
          "name": "_isPaused",
          "type": "bool"
        }
      ],
      "name": "setPaused",
      "outputs": [],
      "stateMutability": "nonpayable",
      "type": "function"
    }
  ],
  "transactionHash": "0xa9332f12f9242c0acb22016119e3f78dafe4a82c0a8c6b244f91bdf7b64c1203",
  "args": [
    "0x004774C00D6b847F76865fC8b4779020843F6AD4"
  ],
  "solcInputHash": "fd3c8178c109590110f2ed79c342fc25",
  "bytecode": "0x608060405234801561001057600080fd5b506040516109e63803806109e683398101604081905261002f91610062565b60018054336001600160a01b031991821617909155600080549091166001600160a01b0392909216919091179055610092565b60006020828403121561007457600080fd5b81516001600160a01b038116811461008b57600080fd5b9392505050565b610945806100a16000396000f3fe608060405234801561001057600080fd5b50600436106100ea5760003560e01c80635c975abb1161008c57806395e31b291161006657806395e31b29146101f0578063aad2b72314610210578063b20d30a914610223578063cc4aa2041461023657600080fd5b80635c975abb146101b15780635d343cca146101d55780637fb9a063146101dd57600080fd5b8063136e4d63116100c8578063136e4d631461014057806316c38b3c146101535780634679a53714610166578063570ca7351461018657600080fd5b806305d6f43b146100ef57806306394c9b1461010b5780631277fffe14610120575b600080fd5b6100f860035481565b6040519081526020015b60405180910390f35b61011e6101193660046107a9565b610249565b005b6100f861012e3660046107d9565b60046020526000908152604090205481565b61011e61014e3660046107a9565b6102d1565b61011e6101613660046107f2565b61031d565b6100f86101743660046107a9565b60056020526000908152604090205481565b600154610199906001600160a01b031681565b6040516001600160a01b039091168152602001610102565b6002546101c590600160a01b900460ff1681565b6040519015158152602001610102565b6100f8610394565b61011e6101eb366004610814565b6103c7565b6100f86101fe3660046107a9565b60066020526000908152604090205481565b61011e61021e3660046107a9565b6106d2565b61011e6102313660046107d9565b61074a565b600254610199906001600160a01b031681565b6001546001600160a01b0316331461027c5760405162461bcd60e51b815260040161027390610863565b60405180910390fd5b600180546001600160a01b0319166001600160a01b0383169081179091556040519081527f8eb831fe42156caaf4721a87ad40c6e662b893dbeee76d7a3ed2564a318b091c906020015b60405180910390a150565b6001546001600160a01b031633146102fb5760405162461bcd60e51b815260040161027390610863565b600280546001600160a01b0319166001600160a01b0392909216919091179055565b6001546001600160a01b031633146103475760405162461bcd60e51b815260040161027390610863565b60028054821515600160a01b0260ff60a01b199091161790556040517f3c70af01296aef045b2f5c9d3c30b05d4428fd257145b9c7fcd76418e65b5980906102c690831515815260200190565b60006004816103a662015180426108be565b8152602001908152602001600020546003546103c291906108e0565b905090565b600254600160a01b900460ff16156104175760405162461bcd60e51b8152602060048201526013602482015272436f6e7472616374206973207061757365642160681b6044820152606401610273565b60408051602081018790529081018590526bffffffffffffffffffffffff1933606090811b82168184015230901b16607482015246608882015260009060a80160408051808303601f1901815282825280516020918201206000805490855291840180845281905260ff88169284019290925260608301869052608083018590529092506001600160a01b03169060019060a0016020604051602081039080840390855afa1580156104cd573d6000803e3d6000fd5b505050602060405103516001600160a01b03161461052d5760405162461bcd60e51b815260206004820152601760248201527f5369676e6174757265206973206e6f742076616c6964210000000000000000006044820152606401610273565b336000908152600660205260409020546105489060016108f7565b85146105865760405162461bcd60e51b815260206004820152600d60248201526c496e76616c6964206e6f6e636560981b6044820152606401610273565b8561058f610394565b10156105e95760405162461bcd60e51b815260206004820152602360248201527f416d6f756e74732065786365656473206461696c79206d696e74696e67206c696044820152621b5a5d60ea1b6064820152608401610273565b85600460006105fb62015180426108be565b8152602001908152602001600020600082825461061891906108f7565b9091555050336000908152600560205260408120805488929061063c9084906108f7565b90915550503360009081526006602052604081208054600192906106619084906108f7565b90915550506002546040516340c10f1960e01b8152336004820152602481018890526001600160a01b03909116906340c10f1990604401600060405180830381600087803b1580156106b257600080fd5b505af11580156106c6573d6000803e3d6000fd5b50505050505050505050565b6001546001600160a01b031633146106fc5760405162461bcd60e51b815260040161027390610863565b600080546001600160a01b0319166001600160a01b0383169081179091556040519081527f2c4c2330e655d7c5374379a59a72351868d5364faf6af52488661fa4e344f948906020016102c6565b6001546001600160a01b031633146107745760405162461bcd60e51b815260040161027390610863565b60038190556040518181527f4c6fb4d469797cfdfb4ac382c2fe84a494711f5b9676334ff9fac5f7601aef70906020016102c6565b6000602082840312156107bb57600080fd5b81356001600160a01b03811681146107d257600080fd5b9392505050565b6000602082840312156107eb57600080fd5b5035919050565b60006020828403121561080457600080fd5b813580151581146107d257600080fd5b600080600080600060a0868803121561082c57600080fd5b8535945060208601359350604086013560ff8116811461084b57600080fd5b94979396509394606081013594506080013592915050565b60208082526025908201527f4f6e6c79206f70657261746f722063616e2063616c6c20746869732066756e6360408201526474696f6e2160d81b606082015260800190565b634e487b7160e01b600052601160045260246000fd5b6000826108db57634e487b7160e01b600052601260045260246000fd5b500490565b6000828210156108f2576108f26108a8565b500390565b6000821982111561090a5761090a6108a8565b50019056fea2646970667358221220a1914c0f6aabbfc6d1e95e89aa0e9971acad6e84e8809aaa62b59dc0c352ecf064736f6c634300080a0033",
  "devdoc": {
    "kind": "dev",
    "methods": {},
    "version": 1
  },
  "userdoc": {
    "kind": "user",
    "methods": {},
    "version": 1
  },
  "storageLayout": {
    "storage": [
      {
        "astId": 11,
        "contract": "contracts/core/ERC20Minter.sol:ERC20Minter",
        "label": "signer",
        "offset": 0,
        "slot": "0",
        "type": "t_address"
      },
      {
        "astId": 13,
        "contract": "contracts/core/ERC20Minter.sol:ERC20Minter",
        "label": "operator",
        "offset": 0,
        "slot": "1",
        "type": "t_address"
      },
      {
        "astId": 15,
        "contract": "contracts/core/ERC20Minter.sol:ERC20Minter",
        "label": "ERC20",
        "offset": 0,
        "slot": "2",
        "type": "t_address"
      },
      {
        "astId": 17,
        "contract": "contracts/core/ERC20Minter.sol:ERC20Minter",
        "label": "paused",
        "offset": 20,
        "slot": "2",
        "type": "t_bool"
      },
      {
        "astId": 19,
        "contract": "contracts/core/ERC20Minter.sol:ERC20Minter",
        "label": "DailyLimit",
        "offset": 0,
        "slot": "3",
        "type": "t_uint256"
      },
      {
        "astId": 23,
        "contract": "contracts/core/ERC20Minter.sol:ERC20Minter",
        "label": "DailyMinted",
        "offset": 0,
        "slot": "4",
        "type": "t_mapping(t_uint256,t_uint256)"
      },
      {
        "astId": 27,
        "contract": "contracts/core/ERC20Minter.sol:ERC20Minter",
        "label": "UserClaimed",
        "offset": 0,
        "slot": "5",
        "type": "t_mapping(t_address,t_uint256)"
      },
      {
        "astId": 31,
        "contract": "contracts/core/ERC20Minter.sol:ERC20Minter",
        "label": "UserNonce",
        "offset": 0,
        "slot": "6",
        "type": "t_mapping(t_address,t_uint256)"
      }
    ],
    "types": {
      "t_address": {
        "encoding": "inplace",
        "label": "address",
        "numberOfBytes": "20"
      },
      "t_bool": {
        "encoding": "inplace",
        "label": "bool",
        "numberOfBytes": "1"
      },
      "t_mapping(t_address,t_uint256)": {
        "encoding": "mapping",
        "key": "t_address",
        "label": "mapping(address => uint256)",
        "numberOfBytes": "32",
        "value": "t_uint256"
      },
      "t_mapping(t_uint256,t_uint256)": {
        "encoding": "mapping",
        "key": "t_uint256",
        "label": "mapping(uint256 => uint256)",
        "numberOfBytes": "32",
        "value": "t_uint256"
      },
      "t_uint256": {
        "encoding": "inplace",
        "label": "uint256",
        "numberOfBytes": "32"
      }
    }
  }
}