{
  "address": "0xEcEF91b10D451d1CD96F5940623173Bb24503F6B",
  "abi": [
    {
      "inputs": [
        {
          "internalType": "address",
          "name": "_signer",
          "type": "address"
        }
      ],
      "stateMutability": "nonpayable",
      "type": "constructor"
    },
    {
      "anonymous": false,
      "inputs": [
        {
          "indexed": false,
          "internalType": "address",
          "name": "",
          "type": "address"
        }
      ],
      "name": "ChangeOperator",
      "type": "event"
    },
    {
      "anonymous": false,
      "inputs": [
        {
          "indexed": false,
          "internalType": "address",
          "name": "",
          "type": "address"
        }
      ],
      "name": "ChangeSigner",
      "type": "event"
    },
    {
      "anonymous": false,
      "inputs": [
        {
          "indexed": false,
          "internalType": "uint256",
          "name": "",
          "type": "uint256"
        }
      ],
      "name": "SetDailyLimit",
      "type": "event"
    },
    {
      "anonymous": false,
      "inputs": [
        {
          "indexed": false,
          "internalType": "bool",
          "name": "",
          "type": "bool"
        }
      ],
      "name": "SetPaused",
      "type": "event"
    },
    {
      "inputs": [],
      "name": "DailyLimit",
      "outputs": [
        {
          "internalType": "uint256",
          "name": "",
          "type": "uint256"
        }
      ],
      "stateMutability": "view",
      "type": "function"
    },
    {
      "inputs": [
        {
          "internalType": "uint256",
          "name": "",
          "type": "uint256"
        }
      ],
      "name": "DailyMinted",
      "outputs": [
        {
          "internalType": "uint256",
          "name": "",
          "type": "uint256"
        }
      ],
      "stateMutability": "view",
      "type": "function"
    },
    {
      "inputs": [],
      "name": "ERC20",
      "outputs": [
        {
          "internalType": "address",
          "name": "",
          "type": "address"
        }
      ],
      "stateMutability": "view",
      "type": "function"
    },
    {
      "inputs": [
        {
          "internalType": "address",
          "name": "",
          "type": "address"
        }
      ],
      "name": "UserClaimed",
      "outputs": [
        {
          "internalType": "uint256",
          "name": "",
          "type": "uint256"
        }
      ],
      "stateMutability": "view",
      "type": "function"
    },
    {
      "inputs": [
        {
          "internalType": "address",
          "name": "_newERC20",
          "type": "address"
        }
      ],
      "name": "changeERC20Address",
      "outputs": [],
      "stateMutability": "nonpayable",
      "type": "function"
    },
    {
      "inputs": [
        {
          "internalType": "address",
          "name": "_newOperator",
          "type": "address"
        }
      ],
      "name": "changeOperator",
      "outputs": [],
      "stateMutability": "nonpayable",
      "type": "function"
    },
    {
      "inputs": [
        {
          "internalType": "address",
          "name": "_newSigner",
          "type": "address"
        }
      ],
      "name": "changeSigner",
      "outputs": [],
      "stateMutability": "nonpayable",
      "type": "function"
    },
    {
      "inputs": [],
      "name": "getAllowedDailyMint",
      "outputs": [
        {
          "internalType": "uint256",
          "name": "",
          "type": "uint256"
        }
      ],
      "stateMutability": "view",
      "type": "function"
    },
    {
      "inputs": [
        {
          "internalType": "uint256",
          "name": "_amount",
          "type": "uint256"
        },
        {
          "internalType": "uint8",
          "name": "_v",
          "type": "uint8"
        },
        {
          "internalType": "bytes32",
          "name": "_r",
          "type": "bytes32"
        },
        {
          "internalType": "bytes32",
          "name": "_s",
          "type": "bytes32"
        }
      ],
      "name": "mint",
      "outputs": [],
      "stateMutability": "nonpayable",
      "type": "function"
    },
    {
      "inputs": [],
      "name": "operator",
      "outputs": [
        {
          "internalType": "address",
          "name": "",
          "type": "address"
        }
      ],
      "stateMutability": "view",
      "type": "function"
    },
    {
      "inputs": [],
      "name": "paused",
      "outputs": [
        {
          "internalType": "bool",
          "name": "",
          "type": "bool"
        }
      ],
      "stateMutability": "view",
      "type": "function"
    },
    {
      "inputs": [
        {
          "internalType": "uint256",
          "name": "_limit",
          "type": "uint256"
        }
      ],
      "name": "setDailyLimit",
      "outputs": [],
      "stateMutability": "nonpayable",
      "type": "function"
    },
    {
      "inputs": [
        {
          "internalType": "bool",
          "name": "_isPaused",
          "type": "bool"
        }
      ],
      "name": "setPaused",
      "outputs": [],
      "stateMutability": "nonpayable",
      "type": "function"
    }
  ],
  "transactionHash": "0xe6aad62450a5e4808cd27027405a6f382701bc6457da9300bef4c2ced6d62336",
  "args": [
    "0x004774C00D6b847F76865fC8b4779020843F6AD4"
  ],
  "solcInputHash": "2aca994d905721ddc75a2588842eb805",
  "bytecode": "0x608060405234801561001057600080fd5b5060405161093d38038061093d83398101604081905261002f91610062565b60018054336001600160a01b031991821617909155600080549091166001600160a01b0392909216919091179055610092565b60006020828403121561007457600080fd5b81516001600160a01b038116811461008b57600080fd5b9392505050565b61089c806100a16000396000f3fe608060405234801561001057600080fd5b50600436106100cf5760003560e01c80634679a5371161008c5780635d343cca116100665780635d343cca146101cd578063aad2b723146101d5578063b20d30a9146101e8578063cc4aa204146101fb57600080fd5b80634679a5371461015e578063570ca7351461017e5780635c975abb146101a957600080fd5b806305d6f43b146100d457806306394c9b146100f057806310aec4a6146101055780631277fffe14610118578063136e4d631461013857806316c38b3c1461014b575b600080fd5b6100dd60035481565b6040519081526020015b60405180910390f35b6101036100fe36600461070c565b61020e565b005b61010361011336600461073c565b610296565b6100dd61012636600461077f565b60046020526000908152604090205481565b61010361014636600461070c565b61053f565b610103610159366004610798565b61058b565b6100dd61016c36600461070c565b60056020526000908152604090205481565b600154610191906001600160a01b031681565b6040516001600160a01b0390911681526020016100e7565b6002546101bd90600160a01b900460ff1681565b60405190151581526020016100e7565b6100dd610602565b6101036101e336600461070c565b610635565b6101036101f636600461077f565b6106ad565b600254610191906001600160a01b031681565b6001546001600160a01b031633146102415760405162461bcd60e51b8152600401610238906107ba565b60405180910390fd5b600180546001600160a01b0319166001600160a01b0383169081179091556040519081527f8eb831fe42156caaf4721a87ad40c6e662b893dbeee76d7a3ed2564a318b091c906020015b60405180910390a150565b600254600160a01b900460ff16156102e65760405162461bcd60e51b8152602060048201526013602482015272436f6e7472616374206973207061757365642160681b6044820152606401610238565b60408051602081018690526bffffffffffffffffffffffff1933606090811b8216938301939093523090921b909116605482015246606882015260009060880160408051808303601f1901815282825280516020918201206000805490855291840180845281905260ff88169284019290925260608301869052608083018590529092506001600160a01b03169060019060a0016020604051602081039080840390855afa15801561039c573d6000803e3d6000fd5b505050602060405103516001600160a01b0316146103fc5760405162461bcd60e51b815260206004820152601760248201527f5369676e6174757265206973206e6f742076616c6964210000000000000000006044820152606401610238565b336000908152600560205260408120546104169087610815565b905080610421610602565b101561047b5760405162461bcd60e51b815260206004820152602360248201527f416d6f756e74732065786365656473206461696c79206d696e74696e67206c696044820152621b5a5d60ea1b6064820152608401610238565b806004600061048d620151804261082c565b815260200190815260200160002060008282546104aa919061084e565b909155505033600090815260056020526040812080548392906104ce90849061084e565b90915550506002546040516340c10f1960e01b8152336004820152602481018390526001600160a01b03909116906340c10f1990604401600060405180830381600087803b15801561051f57600080fd5b505af1158015610533573d6000803e3d6000fd5b50505050505050505050565b6001546001600160a01b031633146105695760405162461bcd60e51b8152600401610238906107ba565b600280546001600160a01b0319166001600160a01b0392909216919091179055565b6001546001600160a01b031633146105b55760405162461bcd60e51b8152600401610238906107ba565b60028054821515600160a01b0260ff60a01b199091161790556040517f3c70af01296aef045b2f5c9d3c30b05d4428fd257145b9c7fcd76418e65b59809061028b90831515815260200190565b6000600481610614620151804261082c565b8152602001908152602001600020546003546106309190610815565b905090565b6001546001600160a01b0316331461065f5760405162461bcd60e51b8152600401610238906107ba565b600080546001600160a01b0319166001600160a01b0383169081179091556040519081527f2c4c2330e655d7c5374379a59a72351868d5364faf6af52488661fa4e344f9489060200161028b565b6001546001600160a01b031633146106d75760405162461bcd60e51b8152600401610238906107ba565b60038190556040518181527f4c6fb4d469797cfdfb4ac382c2fe84a494711f5b9676334ff9fac5f7601aef709060200161028b565b60006020828403121561071e57600080fd5b81356001600160a01b038116811461073557600080fd5b9392505050565b6000806000806080858703121561075257600080fd5b84359350602085013560ff8116811461076a57600080fd5b93969395505050506040820135916060013590565b60006020828403121561079157600080fd5b5035919050565b6000602082840312156107aa57600080fd5b8135801515811461073557600080fd5b60208082526025908201527f4f6e6c79206f70657261746f722063616e2063616c6c20746869732066756e6360408201526474696f6e2160d81b606082015260800190565b634e487b7160e01b600052601160045260246000fd5b600082821015610827576108276107ff565b500390565b60008261084957634e487b7160e01b600052601260045260246000fd5b500490565b60008219821115610861576108616107ff565b50019056fea26469706673582212203229e7b52e49fb587a91e14c090fe87d011c59edf531ad24f3623e873665b13564736f6c634300080a0033",
  "devdoc": {
    "kind": "dev",
    "methods": {},
    "version": 1
  },
  "userdoc": {
    "kind": "user",
    "methods": {},
    "version": 1
  },
  "storageLayout": {
    "storage": [
      {
        "astId": 11,
        "contract": "contracts/core/ERC20Minter.sol:ERC20Minter",
        "label": "signer",
        "offset": 0,
        "slot": "0",
        "type": "t_address"
      },
      {
        "astId": 13,
        "contract": "contracts/core/ERC20Minter.sol:ERC20Minter",
        "label": "operator",
        "offset": 0,
        "slot": "1",
        "type": "t_address"
      },
      {
        "astId": 15,
        "contract": "contracts/core/ERC20Minter.sol:ERC20Minter",
        "label": "ERC20",
        "offset": 0,
        "slot": "2",
        "type": "t_address"
      },
      {
        "astId": 17,
        "contract": "contracts/core/ERC20Minter.sol:ERC20Minter",
        "label": "paused",
        "offset": 20,
        "slot": "2",
        "type": "t_bool"
      },
      {
        "astId": 19,
        "contract": "contracts/core/ERC20Minter.sol:ERC20Minter",
        "label": "DailyLimit",
        "offset": 0,
        "slot": "3",
        "type": "t_uint256"
      },
      {
        "astId": 23,
        "contract": "contracts/core/ERC20Minter.sol:ERC20Minter",
        "label": "DailyMinted",
        "offset": 0,
        "slot": "4",
        "type": "t_mapping(t_uint256,t_uint256)"
      },
      {
        "astId": 27,
        "contract": "contracts/core/ERC20Minter.sol:ERC20Minter",
        "label": "UserClaimed",
        "offset": 0,
        "slot": "5",
        "type": "t_mapping(t_address,t_uint256)"
      }
    ],
    "types": {
      "t_address": {
        "encoding": "inplace",
        "label": "address",
        "numberOfBytes": "20"
      },
      "t_bool": {
        "encoding": "inplace",
        "label": "bool",
        "numberOfBytes": "1"
      },
      "t_mapping(t_address,t_uint256)": {
        "encoding": "mapping",
        "key": "t_address",
        "label": "mapping(address => uint256)",
        "numberOfBytes": "32",
        "value": "t_uint256"
      },
      "t_mapping(t_uint256,t_uint256)": {
        "encoding": "mapping",
        "key": "t_uint256",
        "label": "mapping(uint256 => uint256)",
        "numberOfBytes": "32",
        "value": "t_uint256"
      },
      "t_uint256": {
        "encoding": "inplace",
        "label": "uint256",
        "numberOfBytes": "32"
      }
    }
  }
}