{
  "address": "0xf11793EDDD953725c5D91DA6e35a34775757c0cA",
  "abi": [
    {
      "inputs": [
        {
          "internalType": "address",
          "name": "_signer",
          "type": "address"
        }
      ],
      "stateMutability": "nonpayable",
      "type": "constructor"
    },
    {
      "anonymous": false,
      "inputs": [
        {
          "indexed": false,
          "internalType": "address",
          "name": "",
          "type": "address"
        }
      ],
      "name": "ChangeOperator",
      "type": "event"
    },
    {
      "anonymous": false,
      "inputs": [
        {
          "indexed": false,
          "internalType": "address",
          "name": "",
          "type": "address"
        }
      ],
      "name": "ChangeSigner",
      "type": "event"
    },
    {
      "anonymous": false,
      "inputs": [
        {
          "indexed": false,
          "internalType": "uint256",
          "name": "",
          "type": "uint256"
        }
      ],
      "name": "SetDailyLimit",
      "type": "event"
    },
    {
      "anonymous": false,
      "inputs": [
        {
          "indexed": false,
          "internalType": "bool",
          "name": "",
          "type": "bool"
        }
      ],
      "name": "SetPaused",
      "type": "event"
    },
    {
      "inputs": [],
      "name": "DarkBloodStone",
      "outputs": [
        {
          "internalType": "address",
          "name": "",
          "type": "address"
        }
      ],
      "stateMutability": "view",
      "type": "function"
    },
    {
      "inputs": [
        {
          "internalType": "address",
          "name": "_newDBST",
          "type": "address"
        }
      ],
      "name": "changeDBSTAddress",
      "outputs": [],
      "stateMutability": "nonpayable",
      "type": "function"
    },
    {
      "inputs": [
        {
          "internalType": "address",
          "name": "_newOperator",
          "type": "address"
        }
      ],
      "name": "changeOperator",
      "outputs": [],
      "stateMutability": "nonpayable",
      "type": "function"
    },
    {
      "inputs": [
        {
          "internalType": "address",
          "name": "_newSigner",
          "type": "address"
        }
      ],
      "name": "changeSigner",
      "outputs": [],
      "stateMutability": "nonpayable",
      "type": "function"
    },
    {
      "inputs": [],
      "name": "getAllowedDailyMint",
      "outputs": [
        {
          "internalType": "uint256",
          "name": "",
          "type": "uint256"
        }
      ],
      "stateMutability": "view",
      "type": "function"
    },
    {
      "inputs": [
        {
          "internalType": "uint256",
          "name": "_amount",
          "type": "uint256"
        },
        {
          "internalType": "uint8",
          "name": "_v",
          "type": "uint8"
        },
        {
          "internalType": "bytes32",
          "name": "_r",
          "type": "bytes32"
        },
        {
          "internalType": "bytes32",
          "name": "_s",
          "type": "bytes32"
        }
      ],
      "name": "mintStone",
      "outputs": [],
      "stateMutability": "nonpayable",
      "type": "function"
    },
    {
      "inputs": [],
      "name": "operator",
      "outputs": [
        {
          "internalType": "address",
          "name": "",
          "type": "address"
        }
      ],
      "stateMutability": "view",
      "type": "function"
    },
    {
      "inputs": [],
      "name": "paused",
      "outputs": [
        {
          "internalType": "bool",
          "name": "",
          "type": "bool"
        }
      ],
      "stateMutability": "view",
      "type": "function"
    },
    {
      "inputs": [
        {
          "internalType": "uint256",
          "name": "_limit",
          "type": "uint256"
        }
      ],
      "name": "setDailyLimit",
      "outputs": [],
      "stateMutability": "nonpayable",
      "type": "function"
    },
    {
      "inputs": [
        {
          "internalType": "bool",
          "name": "_isPaused",
          "type": "bool"
        }
      ],
      "name": "setPaused",
      "outputs": [],
      "stateMutability": "nonpayable",
      "type": "function"
    },
    {
      "inputs": [],
      "name": "stoneDailyLimit",
      "outputs": [
        {
          "internalType": "uint256",
          "name": "",
          "type": "uint256"
        }
      ],
      "stateMutability": "view",
      "type": "function"
    },
    {
      "inputs": [
        {
          "internalType": "uint256",
          "name": "",
          "type": "uint256"
        }
      ],
      "name": "stoneDailyMinted",
      "outputs": [
        {
          "internalType": "uint256",
          "name": "",
          "type": "uint256"
        }
      ],
      "stateMutability": "view",
      "type": "function"
    },
    {
      "inputs": [
        {
          "internalType": "address",
          "name": "",
          "type": "address"
        }
      ],
      "name": "stoneUserClaimed",
      "outputs": [
        {
          "internalType": "uint256",
          "name": "",
          "type": "uint256"
        }
      ],
      "stateMutability": "view",
      "type": "function"
    }
  ],
  "transactionHash": "0xd61493cb478f86e1ccf78036cd76767f9b6ac46918491d24a5bbc20df160988f",
  "args": [
    "0x004774C00D6b847F76865fC8b4779020843F6AD4"
  ],
  "solcInputHash": "db11906a690643d4c5b4e56fe377fc01",
  "bytecode": "0x608060405234801561001057600080fd5b5060405161093d38038061093d83398101604081905261002f91610062565b60018054336001600160a01b031991821617909155600080549091166001600160a01b0392909216919091179055610092565b60006020828403121561007457600080fd5b81516001600160a01b038116811461008b57600080fd5b9392505050565b61089c806100a16000396000f3fe608060405234801561001057600080fd5b50600436106100cf5760003560e01c80635d343cca1161008c578063b20d30a911610066578063b20d30a9146101bf578063d0e192d6146101d2578063e156c84b146101e5578063fee3472d1461020557600080fd5b80635d343cca146101915780636e514bc914610199578063aad2b723146101ac57600080fd5b806306394c9b146100d457806316c38b3c146100e95780631754b6ce146100fc57806320332fe01461012c578063570ca7351461015a5780635c975abb1461016d575b600080fd5b6100e76100e236600461070c565b61020e565b005b6100e76100f736600461073c565b610296565b60025461010f906001600160a01b031681565b6040516001600160a01b0390911681526020015b60405180910390f35b61014c61013a36600461075e565b60046020526000908152604090205481565b604051908152602001610123565b60015461010f906001600160a01b031681565b60025461018190600160a01b900460ff1681565b6040519015158152602001610123565b61014c61030d565b6100e76101a736600461070c565b610340565b6100e76101ba36600461070c565b61038c565b6100e76101cd36600461075e565b610404565b6100e76101e0366004610777565b610463565b61014c6101f336600461070c565b60056020526000908152604090205481565b61014c60035481565b6001546001600160a01b031633146102415760405162461bcd60e51b8152600401610238906107ba565b60405180910390fd5b600180546001600160a01b0319166001600160a01b0383169081179091556040519081527f8eb831fe42156caaf4721a87ad40c6e662b893dbeee76d7a3ed2564a318b091c906020015b60405180910390a150565b6001546001600160a01b031633146102c05760405162461bcd60e51b8152600401610238906107ba565b60028054821515600160a01b0260ff60a01b199091161790556040517f3c70af01296aef045b2f5c9d3c30b05d4428fd257145b9c7fcd76418e65b59809061028b90831515815260200190565b600060048161031f6201518042610815565b81526020019081526020016000205460035461033b9190610837565b905090565b6001546001600160a01b0316331461036a5760405162461bcd60e51b8152600401610238906107ba565b600280546001600160a01b0319166001600160a01b0392909216919091179055565b6001546001600160a01b031633146103b65760405162461bcd60e51b8152600401610238906107ba565b600080546001600160a01b0319166001600160a01b0383169081179091556040519081527f2c4c2330e655d7c5374379a59a72351868d5364faf6af52488661fa4e344f9489060200161028b565b6001546001600160a01b0316331461042e5760405162461bcd60e51b8152600401610238906107ba565b60038190556040518181527f4c6fb4d469797cfdfb4ac382c2fe84a494711f5b9676334ff9fac5f7601aef709060200161028b565b600254600160a01b900460ff16156104b35760405162461bcd60e51b8152602060048201526013602482015272436f6e7472616374206973207061757365642160681b6044820152606401610238565b60408051602081018690526bffffffffffffffffffffffff1933606090811b8216938301939093523090921b909116605482015246606882015260009060880160408051808303601f1901815282825280516020918201206000805490855291840180845281905260ff88169284019290925260608301869052608083018590529092506001600160a01b03169060019060a0016020604051602081039080840390855afa158015610569573d6000803e3d6000fd5b505050602060405103516001600160a01b0316146105c95760405162461bcd60e51b815260206004820152601760248201527f5369676e6174757265206973206e6f742076616c6964210000000000000000006044820152606401610238565b336000908152600560205260408120546105e39087610837565b9050806105ee61030d565b10156106485760405162461bcd60e51b815260206004820152602360248201527f416d6f756e74732065786365656473206461696c79206d696e74696e67206c696044820152621b5a5d60ea1b6064820152608401610238565b806004600061065a6201518042610815565b81526020019081526020016000206000828254610677919061084e565b9091555050336000908152600560205260408120805483929061069b90849061084e565b90915550506002546040516340c10f1960e01b8152336004820152602481018390526001600160a01b03909116906340c10f1990604401600060405180830381600087803b1580156106ec57600080fd5b505af1158015610700573d6000803e3d6000fd5b50505050505050505050565b60006020828403121561071e57600080fd5b81356001600160a01b038116811461073557600080fd5b9392505050565b60006020828403121561074e57600080fd5b8135801515811461073557600080fd5b60006020828403121561077057600080fd5b5035919050565b6000806000806080858703121561078d57600080fd5b84359350602085013560ff811681146107a557600080fd5b93969395505050506040820135916060013590565b60208082526025908201527f4f6e6c79206f70657261746f722063616e2063616c6c20746869732066756e6360408201526474696f6e2160d81b606082015260800190565b634e487b7160e01b600052601160045260246000fd5b60008261083257634e487b7160e01b600052601260045260246000fd5b500490565b600082821015610849576108496107ff565b500390565b60008219821115610861576108616107ff565b50019056fea264697066735822122033fbb5173e418719a51b280ffffc0e050480a4ad0839e02410fc5627a5f7666d64736f6c634300080a0033",
  "devdoc": {
    "kind": "dev",
    "methods": {},
    "version": 1
  },
  "userdoc": {
    "kind": "user",
    "methods": {},
    "version": 1
  },
  "storageLayout": {
    "storage": [
      {
        "astId": 11,
        "contract": "contracts/core/StoneMinter.sol:StoneMinter",
        "label": "signer",
        "offset": 0,
        "slot": "0",
        "type": "t_address"
      },
      {
        "astId": 13,
        "contract": "contracts/core/StoneMinter.sol:StoneMinter",
        "label": "operator",
        "offset": 0,
        "slot": "1",
        "type": "t_address"
      },
      {
        "astId": 15,
        "contract": "contracts/core/StoneMinter.sol:StoneMinter",
        "label": "DarkBloodStone",
        "offset": 0,
        "slot": "2",
        "type": "t_address"
      },
      {
        "astId": 17,
        "contract": "contracts/core/StoneMinter.sol:StoneMinter",
        "label": "paused",
        "offset": 20,
        "slot": "2",
        "type": "t_bool"
      },
      {
        "astId": 19,
        "contract": "contracts/core/StoneMinter.sol:StoneMinter",
        "label": "stoneDailyLimit",
        "offset": 0,
        "slot": "3",
        "type": "t_uint256"
      },
      {
        "astId": 23,
        "contract": "contracts/core/StoneMinter.sol:StoneMinter",
        "label": "stoneDailyMinted",
        "offset": 0,
        "slot": "4",
        "type": "t_mapping(t_uint256,t_uint256)"
      },
      {
        "astId": 27,
        "contract": "contracts/core/StoneMinter.sol:StoneMinter",
        "label": "stoneUserClaimed",
        "offset": 0,
        "slot": "5",
        "type": "t_mapping(t_address,t_uint256)"
      }
    ],
    "types": {
      "t_address": {
        "encoding": "inplace",
        "label": "address",
        "numberOfBytes": "20"
      },
      "t_bool": {
        "encoding": "inplace",
        "label": "bool",
        "numberOfBytes": "1"
      },
      "t_mapping(t_address,t_uint256)": {
        "encoding": "mapping",
        "key": "t_address",
        "label": "mapping(address => uint256)",
        "numberOfBytes": "32",
        "value": "t_uint256"
      },
      "t_mapping(t_uint256,t_uint256)": {
        "encoding": "mapping",
        "key": "t_uint256",
        "label": "mapping(uint256 => uint256)",
        "numberOfBytes": "32",
        "value": "t_uint256"
      },
      "t_uint256": {
        "encoding": "inplace",
        "label": "uint256",
        "numberOfBytes": "32"
      }
    }
  }
}